:100000000C944B0C0C94730C0C94730C0C94730C9C
:100010000C94730C0C94730C0C94730C0C94730C64
:100020000C94730C0C94730C0C94F8170C946718C4
:100030000C94730C0C94730C0C94730C0C94730C44
:100040000C94730C0C94730C0C94730C0C94730C34
:100050000C94730C0C94730C0C94730C0C94991AF0
:100060000C94730C0C94730C0C94730C0C94730C14
:100070000C94730C0C94730C0C94730C0C94730C04
:100080000C94730C0C94730C0C94730C0C94730CF4
:100090000C94E31A0C94730C0C94730C0C94730C66
:1000A0000C94730C0C94730C0C94730C084AD73B8F
:1000B0003BCE016E84BCBFFDC12F3D6C74319ABD37
:1000C00056833DDA3D00C77F11BED9E4BB4C3E915B
:1000D0006BAAAABE000000803F05A84CCDB2D44E4A
:1000E000B93836A9020C50B9918688083CA6AAAA4C
:1000F0002ABE000000803F00000000000000000059
:10010000000000000000000000000000000180006E
:10011000062669F6F666E6EFF692198996E6E6E9AE
:100120009999F000024183CF0929998819999998E2
:1001300088921A8FD9999849999910000427E56FE8
:1001400009222FEE167FE89EE8F21C89B9E9E649FC
:10015000996660060427E7EF0924911919199998FF
:1001600089929A89998B91496F968020042187EF13
:10017000067F61E61669E6EF869269F996879E46E4
:100180006996F440F24180E08040201008040201AA
:10019000000000000000000000000000000000005F
:1001A000000088880000222200008A8A00002222A3
:1001B0000000AAAA1010AAAA0000AAAA0101AAAACD
:1001C0004444AAAA5555AAAA4444AAAA1555AAAABB
:1001D0005555AAAA5555BBBB5555AAEA5555BBBBA3
:1001E0005555FFFF5555FBFB5555FFFF5555BBBFFB
:1001F0005757FFFFDDDDFFFF7775FFFFDDDDFFFFF9
:10020000FFFFFFFFFFFFFFFFFFFFFFFFFFFFFFFFFE
:10021000F0F89C8E8783878E9CF8F00000FEFF0329
:1002200003030303070EFCF80000FEFF03030303B0
:1002300003070EFCF80000FFFF00000000000000B4
:10024000FFFF0000FEFF8383838383C7EE7C3800BB
:1002500000F8FC0E07030303070EFCF800003F7FC5
:10026000E0C08080C0E07F3FFFFF0101010101018C
:1002700001FFFF0000FFFF0C0C0C0C1C3E77E3C1DC
:1002800000007FFFC0C0C0C0C0E0703F1F00001F63
:100290003F70E0C0C0C0E0703F1F00007FFFC1C1E1
:1002A000C1C1C1E3773E1C00001F3F70E0C0C0C069
:1002B000E0703F1F000000000001FFFF0100000090
:1002C00000000000003E5B4F5B3E3E6B4F6B3E1CF0
:1002D0003E7C3E1C183C7E3C181C577D571C1C5E07
:1002E0007F5E1C00183C1800FFE7C3E7FF001824DE
:1002F0001800FFE7DBE7FF30483A060E2629792988
:1003000026407F050507407F05253F5A3CE73C5ABC
:100310007F3E1C1C08081C1C3E7F14227F22145F99
:100320005F005F5F06097F017F006689956A6060F4
:1003300060606094A2FFA29408047E040810207EEE
:10034000201008082A1C08081C2A08081E10101073
:10035000100C1E0C1E0C30383E3830060E3E0E06B9
:10036000000000000000005F00000007000700140C
:100370007F147F14242A7F2A1223130864623649CB
:100380005620500008070300001C224100004122B3
:100390001C002A1C7F1C2A08083E080800807030B8
:1003A0000008080808080000606000201008040227
:1003B0003E5149453E00427F40007249494946212D
:1003C00041494D331814127F1027454545393C4AA1
:1003D00049493141211109073649494936464949B8
:1003E000291E000014000000403400000008142200
:1003F000411414141414004122140802015909066E
:100400003E415D594E7C1211127C7F494949363E6E
:10041000414141227F4141413E7F494949417F0954
:100420000909013E414151737F0808087F00417F5F
:1004300041002040413F017F081422417F4040405D
:10044000407F021C027F7F0408107F3E4141413EF5
:100450007F090909063E4151215E7F091929462677
:100460004949493203017F01033F4040403F1F207B
:1004700040201F3F4038403F631408146303047852
:1004800004036159494D43007F4141410204081072
:1004900020004141417F04020102044040404040AD
:1004A000000307080020545478407F28444438381B
:1004B00044444428384444287F385454541800088D
:1004C0007E090218A4A49C787F0804047800447D67
:1004D00040002040403D007F1028440000417F4004
:1004E000007C047804787C08040478384444443858
:1004F000FC1824241818242418FC7C080404084838
:100500005454542404043F44243C4040207C1C2088
:1005100040201C3C4030403C44281028444C9090E3
:10052000907C4464544C440008364100000077003D
:1005300000004136080002010204023C2623263C4A
:100540001EA1A161123A4040207A385454555921D5
:1005500055557941215454784121555478402054BF
:100560005579400C1E52721239555555593954540B
:10057000545939555454580000457C410002457D7A
:10058000420001457C40F0292429F0F0282528F07C
:100590007C545545002054547C547C0A097F4932D0
:1005A000494949323248484832324A4848303A414B
:1005B00041217A3A42402078009DA0A07D394444F0
:1005C00044393D4040403D3C24FF2424487E49437B
:1005D000662B2FFC2F2BFF0929F620C0887E0903EC
:1005E00020545479410000447D413048484A323813
:1005F0004040227A007A0A0A727D0D19317D26293F
:10060000292F28262929292630484D402038080836
:10061000080808080808382F10C8ACBA2F1028346A
:10062000FA00007B000008142A142222142A14085D
:100630009500220095AA005500AAAA55AA55AA001D
:100640000000FF00101010FF00141414FF00101021
:10065000FF00FF1010F010F0141414FC001414F735
:1006600000FF0000FF00FF1414F404FC1414171022
:100670001F10101F101F1414141F00101010F00072
:100680000000001F101010101F10101010F01000AC
:100690000000FF101010101010101010FF100000BC
:1006A00000FF140000FF00FF00001F10170000FCF7
:1006B00004F414141710171414F404F40000FF00C9
:1006C000F714141414141414F700F7141414171452
:1006D00010101F101F141414F4141010F010F00058
:1006E000001F101F0000001F14000000FC14000079
:1006F000F010F01010FF10FF141414FF141010105D
:100700001F00000000F010FFFFFFFFFFF0F0F0F00F
:10071000F0FFFFFF0000000000FFFF0F0F0F0F0FA3
:1007200038444438447C2A2A3E147E0202060602DB
:100730007E027E0263554941633844443C04407E56
:10074000201E2006027E020299A5E7A5991C2A49CF
:100750002A1C4C7201724C304A4D4D30304878485A
:1007600030BC625A463D3E494949007E0101017E46
:100770002A2A2A2A2A44445F444440514A44404099
:10078000444A51400000FF0103E080FF00000808D8
:100790006B6B083612362436060F090F0600001858
:1007A000180000001010003040FF0101001F01017F
:1007B0001E00191D1712003C3C3C3C0000000000CC
:1007C000D5F08D14A1C881CFD9F1AF20005052458A
:1007D000535320464952450000000000000000002D
:1007E0000040080001042008011200001000000071
:1007F0004000004000800050002811024000A0008E
:100800005000280A026001A00050002C0A0241E1B9
:10081000B0F05078280A066220A1B850C82C040213
:100820004A31B088D0882804066221A18850886C9B
:1008300014024331B08A528A2880064231A8C8D0B7
:10084000882C42866B29A5A8D4EAAC50426365B4D3
:10085000DA52D96C422653B1B1D8D4DA6D48866BDE
:1008600075B5DA52FC6D6B566BA1B0FBDAD96C69C9
:100870004653EDBDFA76FAEF6CB26FEBF4FDDDFD99
:100880006CE74E77EBBFFED6FBEEF1E659EFBCF21C
:10089000D6FBEFF4F6F3B7FFFB5CFFEFD67A6BBF46
:1008A000BE88D2DFEFDCD64B7FFFCA709FEFDECE73
:1008B0004BDFBFEB76FFEFDFD677FFFFFE56FFFF84
:1008C000DFC2DFFFFFFEFBDFEFCF764FFFBFFBDFB7
:1008D000FFE7EF527FFF9FFFFFFFDFDF7EFFFFCFCE
:1008E000FFFFFFBFCE627FFFFFFFDFFF7FFEFE7FC8
:1008F000FFE3FF8FFF7FEE7E7FFFC1FF07FC1FDF5F
:100900007EFFFF807C01F00FFDFE7FFF003801E0DD
:1009100007FD7E7FFC00100040033FFE7FF80000D3
:1009200000000013FEFFF00000000000037E7FC007
:10093000000000000003FE7F80000000000003FEB6
:100940007F00000000000007FEFC00000000000027
:1009500003FEF800000000000001FE70000000002F
:10096000000000FE20000000000000003F0000002A
:1009700000000000001E00000000000000000C1F2E
:10098000F83FFC7FFE7FFE7FFE7FFE7FFE7FFE7FC7
:10099000FE7FFE7FFE7FFE7FFE7FFE7FFE3FFC0030
:1009A0000000000000000000000FFC1FFC3FFC3FA7
:1009B000FC3FFC3FFC3FFC07FC03F8000000001F6D
:1009C000F83FFC7FFE7FFE77EE3FFC5FFA2FF65389
:1009D000CC3E7E5E7C381E581C3E7E5E7E2EFC0029
:1009E0000000000000000000000FFC17FC226C3625
:1009F000443FFC1FFC2BFC055402A8000000001F14
:100A0000400FF03FF81FFC7FFD7FFC7FFDFFFEFFE6
:100A1000FFFFFFFFFEFFFE3FFE17F807F401E000B7
:100A20000001400AB00ED0006853B40F4827781771
:100A3000A827F021D602F820480620010000000077
:100A4000000000000000000003C0000003C0000020
:100A500007E0000007E0000003E0000107F180006C
:100A6000DFFE00003FFE00007FFF0001FFFF80006F
:100A7000FFFF8001FFFF8003CFF1C001C7F1C0017C
:100A800087F1C0030FF980030FFB80018FFF800304
:100A90009F7900001F7C00000F7800000F78000095
:100AA0000730000007380000073000000730000062
:100AB00003780000073000000F80000000000000F5
:100AC0000000000003C0000007C0000007E00000B5
:100AD00007C0000107E100008FFA0000FFFE0000E0
:100AE0003FFE00017FFF8000FFFF0001FFFF80034A
:100AF000CFFBC00387F1C003CFF3C001CFF180006B
:100B0000CFF100000FFB80001E7800000E7800007F
:100B10001E7800000F7000000F78000007700000C2
:100B200007700000073800000330000003200000B9
:100B30000730000005700000007800000000000091
:100B40000000000000000000000E0000001F000078
:100B5000001F0000033F8000013F000001FF300044
:100B600003FFC00003FFC00003FF800007FFE00099
:100B700007FFC00005FFE00000FCE00001FCE00012
:100B800001FC700003FC380003FE700007FC00004D
:100B9000079E00000FBC00000F3E0000079C0000F5
:100BA000039C000003B800000398000001980000B7
:100BB000021C0000003600000000000000000000E1
:100BC0000000000000000000000000000000000025
:100BD000000000000020000000380000001F00009E
:100BE000001F4000003E800001FF800003FF8000E6
:100BF00007FFE0000EFFC0000CFF80001FFE00009A
:100C000013FC000007FE00001FFF00003F9F0000D4
:100C10003E0F00007C0F0000780F00007807800076
:100C200078074000380780003007000030010001DD
:100C3000F0000001B0000000000000000000000013
:100C400000000000000000000000000000000000A4
:100C50000000000000000000000000000000000094
:100C60000000000000000000000000000000000084
:100C70000000000000000000000000000000000074
:100C8000000000000000000000000000011C000047
:100C9000013E000003FF00000FFFE0013FFFC00125
:100CA000FFFFC019FFFFE87FFFFFFE3FFFFFFE1FB2
:100CB000C207E01F0001E00E00004000000000003D
:100CC0000000000000000000018000000280000021
:100CD0000740000002800000010000010FB3000087
:100CE000D04E0000798C00001C1900018A20000001
:100CF00000000000000300020000000302000000EA
:100D00000000400208008000000100018E30000059
:100D1000041000000C200000000000000000000093
:100D2000001000000600000000000000002000008D
:100D3000010000000220000005000000000000008B
:100D400000000000018000000240000003E00000FD
:100D50000400000001A1800180130000F38A00005C
:100D60000994000088388000000000000223000081
:100D7000000040018000800000010000E2800000CF
:100D8000000000000C2000000430000002200000E1
:100D900000400000000000000100000002200000F0
:100DA000060000000000000000000000020000003B
:100DB0000000000000A0000000480000000000004B
:100DC000000000000000000000040000000A000015
:100DD000001F0000022A80000105000001AE200073
:100DE0000124400002AC80000286000003202000A5
:100DF000043040000C0000000000400000202000F3
:100E0000000000000008200001000000021A00009D
:100E1000001C0000003800000400000002980000E0
:100E200000180000000000000000000000000000AA
:100E3000000000000036000000000000000000007C
:100E40000000000000000000000000000020000082
:100E5000000000000000000000040000000A000084
:100E6000000840000000800001D6800002BF800022
:100E70000661A0000CE880000C1000001A2200009F
:100E800012400000060C0000040D00003A030000B0
:100E900010020000600A000050040000200300005F
:100EA00000040000200000000000000020000000FE
:100EB00000000000400000000000000000000000F2
:100EC0000000000000000000000000000000000022
:100ED0000000000000000000000000000000000012
:100EE0000000000000000000000000000000000002
:100EF00000000000000000000000000000000000F2
:100F000000000000000000000000000002240000BB
:100F100001080000011800000141400233B68001C1
:100F20009C040008FA02080500010C2783A22A008D
:100F300004000002000000000000000000000000AB
:100F40000020000000D8000001C4000002040000DE
:100F50000202000002EA000004D1000009888000BB
:100F6000190000000DC280002981C0000BA22000E2
:100F7000314040002300C000130040007202000016
:100F800049004001E0A82007F100300BB9E0E80774
:100F90005C03FC07EFFFEE07757FD21BBBFFB211AE
:100FA000577D6432AFFFE8135F75D033FFFB9817AE
:100FB000D7E5001B8FB230037D58106FBFEC2000C7
:100FC0000070000001FC000003FE000007FE0000AE
:100FD00007FF000007FF00000FFF80001FFFC00099
:100FE0003FFF80003FFFC0007FFFE0007FFFF00079
:100FF0007FFFE0007FFFE0007FFFE000FFFFC00019
:10100000FFFFE003FFFFF00FFFFFF81FFFFFFC1FD4
:10101000FFFFFE1FFFFFFF1FFFFFFF3FFFFFFF3F21
:10102000FFFFFE7FFFFFFC7FFFFFF87FFFFFFC7FDE
:10103000FFFFF87FFFFFF87FFFFFF8FFFFFFF000E3
:101040000000001800000C0002770001670001E5B5
:101050008001E3C002A2C00782E01F41F99D807CAD
:101060003E005E76006A3800362F805C36007E3F98
:10107000005810003C8800000000005B5D007B7D94
:1010800000000000002300260029002C002F000093
:1010900000000200090F0000030401000C00000022
:1010A0000000000000000000000000000000080B2D
:1010B0000002020200000904000001020200000513
:1010C0002400100105240101010424020605240660
:1010D00000010705810310004009040100020A0015
:1010E00000000705020240000007058302400000DF
:1010F0000403090412010002EF020140412336807B
:1011000000010102030141726475696E6F204C4C4D
:10111000430041726475626F790000000000250091
:1011200028002B002E0031000000000024002700C2
:101130002A002D0030000404040404030405020204
:101140000202040302020202060606060606040460
:1011500002020204040408020110408040102040F2
:10116000804080080204018040201002011080109D
:1011700020404020FFFFFFFFFFFFFFFFFFFFFFFFBB
:10118000FFFFFFFFFFFFFFFFFFFFFFFFFFFFFFFF6F
:10119000FFFFFFFFFFFFFFFFFFFFFFFFFFFFFFFF5F
:1011A000FFFFFFFFFFFFFFFFFFFFFFFFFFFFFFFF4F
:1011B000FFFFFFFFFFFFFFFFFFFFFFFFFFFFFFFF3F
:1011C000FFFFF00000000000FFFFFFFFFFFFFFFF39
:1011D000FFFFFFFFFFFFFF0000FFFFFFFFFFFFFF1D
:1011E000FFFFF00000000200FFFFFFFFFFFFFFFF17
:1011F000FFFFFFFFFFFFFF0000FFFFFFFF000000FA
:101200000000F00000000000F000FFFFFFFFFFFF04
:10121000FFFFFFFFFFFFFF00000FFFFFFF000000C9
:1012200000005000002000000080FFFFFFFFFFFFD4
:10123000FFFFFFFFFFFFFF00000FFFFFFF000000A9
:101240000000F00000000000F000FFFFFFFFFFFFC4
:10125000FFFFFFFFFFFFFFFFFFFFFFFFFF000FFF8D
:10126000FFFFF00000000000FFFFFFFFFFFFFFFF98
:10127000FFFFFFFFFFFFFF000000000FFF000FFF59
:10128000FFFFF00000000000FFFFFFFFFFFFFFFF78
:10129000FFFFFFFFFFFFFF000000000FFF000FFF39
:1012A000FFFFFFFFFF4FFFFFFFFFFFFFFFFFFFFFFE
:1012B000FFFFFFFFFFFFFF000000000F0000002FF7
:1012C000FFFFFFFFF000FFFFFFFFFFFFFFFFFFFF3C
:1012D000FFFFFFFFFFFFFF00002000040002000FE0
:1012E000FFFFFFFFF000FFFFFFFFFFFFFFFFFFFF1C
:1012F000FFFFFFFFFFFFFF000000000F0000000FD7
:10130000FFFFFFFFF000FFFFFFFFFFFFFFFFFFFFFB
:10131000FFFFFFFFFFFFFF000020000FFFFFFFFFA9
:10132000FFFFFFFFF000FFFFFFFFFFFFFFFFFFFFDB
:10133000FFFFFFFFF000FF000000000FFFFFFFFFB7
:10134000FFFFFFFFF000FFFFFFFFFFFFFFFFFFFFBB
:10135000FFFFFFFFF090FFFFFF4FFFFFFFFFFFFFCB
:10136000FFFFFFFFF000FFFFFFFFFFFFFFFFFFFF9B
:10137000FFFFFFFFF000FFFFF000FFFFFFFFFFFF99
:10138000FFF000F2000009FFFFFFFFFFFFFFFFFF7C
:10139000FFFFFFFFFF4FFFFFF000FFFFFFFFFFFF1B
:1013A000FFF00FFFF000FFFFFFFFFFFFFFFFFFFF5A
:1013B000FFFFFFFFF000FFFFF000FFFFFFFFFFFF59
:1013C000FFF00FFFF000FFFFFFFFFFFFFFFFFFFF3A
:1013D000FFFFFFFFF000F000F000FFFFFFFFFFFF47
:1013E000FFF00FFFF000FFFFFFFFFFFFFFFFFFFF1A
:1013F000FFFFFFFFF0004000F000FFFFFFFFFFFFD7
:10140000FFFFFFFFF000FFFFFFFFFFFFFFFFFFFFFA
:10141000FFFFFFFFF000F000F000FFFFFFFFFFFF06
:10142000FFFFFFFFF000FFFFFFFFFFFFFFFFFFFFDA
:10143000FFFFFFFFF000FFFFFF4FFFFFFFFFFFFF7A
:10144000FFFFFFFFFF5FFFFFFFFFFFFFFFFFFFFF4C
:10145000FFFFFFFFF020FF000000000FFFFFFFFF76
:10146000FFFFFFFF00000FFFFFFFFFFFFFFFFF0079
:10147000000000FFF000FF000000000FFFFFFFFF73
:10148000FFF000000000000000FFFFFFFFFFFF0073
:10149000000000FFF000FF000200000FFFFFFFFF51
:1014A000FFF000000000000000FFFFFFFFFFFF0053
:1014B000000000FFF0000F000000000FFFFFFFFF23
:1014C000FFF0002000000020000F000000000F00CF
:1014D000000000FFF00005000090000FFFFFFFFF7D
:1014E000FFF00000000000000004000020000400E5
:1014F000002000FFF0000F000000000FFFFFFFFFC3
:10150000FFF0000000000000000F000000000F00CE
:10151000000000FFF000FF000002000FFFFFFFFFD0
:10152000FFF000000000000000FFFF0000FFFF00D0
:10153000000000FFF000FF000000000FFFFFFFFFB2
:10154000FFF000000000000000FFFFF00FFFFF00B1
:10155000000800FFF000FF000000000FFFFFFFFF8A
:10156000FFFFFFFF00000FFFFFFFFFF00FFFFF0077
:10157000000000FFF000FFFFFF5FFFFFFFFFFFFF26
:10158000FFFFFFFFFF4FFFFFFFFFFFF00FFFFFFF1A
:10159000FFFFFFFFF000FFFFF000FFFFFFFFFFFF77
:1015A000FFFFFFFFF000FFFFFFFFFFF00FFFFFFF58
:1015B000FFFFFFFFF202FFFFF000FFFFFFFFFFFF53
:1015C000FFFFFFFFF000FFFFFFFFFFF00FFFFFFF38
:1015D000FFFFFFFFF000F000F000FFFFFFFFFFFF45
:1015E000FFFFFFFFF020FFFFFFFFFFF00FFFFFFFF8
:1015F000FFFFFFFFF0004080F000FFFFFFFFFFFF55
:10160000FFFFFFFFF000FFFFFFFFFFF00FFFFFFFF7
:10161000FFFFFFFFF000F000F000FFFFFFFFFFFF04
:10162000FFFFFFFFF000FFFFFFFFFFF00FFF0F0FB7
:101630000F0FFFFFF000FFFFF000FFFFFFFFFFFFB6
:10164000FFFFFFFFF000FFFFFFFFFFF000F00000D3
:101650000000FFFFF000FFFFF000FFFFFFFFFFFFB4
:10166000FFFFFFFFF000FFFFFFFFFFF00040000261
:101670000090FFFFF0000000000000000FF00000ED
:101680000FFFFFFFF000FFFFFFFFFFF000F0000083
:101690000000FFFFF00002000000002000500020CA
:1016A000007FFFFFF000FFFFFFFFFFFFFFFF0F0FB7
:1016B0000F0FFFFFF0000000000000000FF000001F
:1016C0000FFFFFFFF000FFFFFFFFFFFFFFFFFFFF28
:1016D000FFFFFFFFFFFFFFFFFFFFFFFFFFFFFFFF1A
:1016E000FFFFFFFFF000FFFFFFFFFFFFFFFFFFFF18
:1016F000FFFFFFFFFFFFFFFFFFFFF00F00F00FFFF7
:10170000FFFFFFFFFF5FFFFFFFFFFFFFFFFFFFFF89
:10171000FFFFFFFFFFFFFFFFFFF0000F00F0FFFFE5
:10172000FFFF0000F000F0000FFFFFFFFFFFFFFFD3
:10173000FFFFFFFFFFFFFFFFFFFFF00000FFFFFFC6
:10174000FFFF0100400040000FFFFFFFFFFFFFFF12
:10175000FFFFFFFFFFFFFFFFFFFFFFFFFFFFFFFF99
:10176000FFFF0000F000F0000FFFFFFFFFFFFFFF93
:10177000FFFFFFFFFFFFFFFFFFFFFF00FFFFFFFF78
:10178000FFFFFFFFF000FFFFFFFFFFFFFFFFFFFF77
:10179000FFFFFFFFFFFFFFFFFFFFFF00FFFFFFFF58
:1017A000FFFF0000F000F0000FFFFFFFFFFFFFFF53
:1017B000FFFFFFFFFFFFFFFFFFFFFFFFFFFFFFFF39
:1017C000FFFF0000400040000FFFFFFFFFFFFFFF93
:1017D000FFFFFFFFFFFFFFFFFFFFFFFFFFFFFFFF19
:1017E000FFFF0000F000F0000FFFFFFFFFFFFFFF13
:1017F000FFFFFFFFFFFFFFFFFFFFFFFFFFFFFFFFF9
:10180000FFFFFFFFF000FFFFFFFFFFFFFFFFFFFFF6
:10181000FFFFFFFFFFFFFFFFFFFFFFFFFFFFFFFFD8
:10182000FFFF0000000000000FFFFFFFFFFFFFFFB2
:10183000FFFFFFFFFFFFFFFFFFFFFFFFFFFFFFFFB8
:10184000FFFF0000000000290FFFFFFFFFFFFFFF69
:10185000FFFFFFFFFFFFFFFFFFFFFFFFFFFFFFFF98
:10186000FFFF0000000000000FFFFFFFFFFFFFFF72
:10187000FFFFFFFFFFFFFFFFFFFFFFFFFFFFFFFF78
:10188000FFFFFFFFFFFFFFFFFFFFFFFFFFFFFFFF68
:10189000FFFFFFFF3F1B11241FBECFEFDAE0DEBFCB
:1018A000CDBF11E0A0E0B1E0EEE9FAE502C005909D
:1018B0000D92A636B107D9F728E0A6E6B1E001C03F
:1018C0001D92AC32B207E1F71CE0CBE4DCE004C0CF
:1018D0002197FE010E942C2DCA34D107C9F70E941E
:1018E0005C1B0C944D2D0C940000E8E3F0E0E61B2B
:1018F000F10926E0EE0FFF1F2A95E1F7E80FF11D31
:10190000F7FD3196F595E795EC58FE4EE491F0E041
:1019100080FF0AC080E09F0102C0359527958A9517
:10192000E2F7C9018F70089584E0F5CFCF93DF937C
:1019300090E0FC01EB5AFE4E24918A5C9E4EFC0125
:1019400084918823C1F090E0880F991FFC01E85D25
:10195000FE4EC591D491FC01E65EFE4EA591B49178
:101960009FB7F8943881822F809583238883EC91E8
:10197000E22BEC939FBFDF91CF910895E8EDF3E068
:10198000A0E0B8E000800EBC8111012C1197A0FDF1
:10199000FDCF0192B9F70DB408950F931F93CF9324
:1019A000DF93EC01122F1D861C8620E4129FC001DC
:1019B0001124842B24E0880F991F2A95E1F7862BA8
:1019C00099838883642F70E090E080E00E940B2B65
:1019D00020E030E040E05FE30E947B296A837B8364
:1019E0008C839D83612F70E090E080E00E940B2B40
:1019F00020E030E040E05FE30E947B296E837F833C
:101A0000888799871A860B87CE01DF91CF911F9126
:101A10000F910895BC0180E090E04EE05091D30317
:101A2000951760F5292F30E0811110C0429FF00119
:101A3000439FF00D1124E95BFC4F0190F081E02DF4
:101A4000E617F707C9F451505093D303429FD001D2
:101A5000439FB00D1124A95BBC4F2F5F3F4F429FA6
:101A6000F001439FF00D1124E95BFC4F842F01909E
:101A70000D928A95E1F781E09F5FD0CF0895FC0138
:101A800080914603882311F13FB7F89482E0809358
:101A9000E9002091F200822F90E01816190614F444
:101AA00081E090E0882339F0289844E6409345038C
:101AB0004091F1004083222339F02091F20021115E
:101AC00003C02BE62093E8003FBF08958FEF9FEF00
:101AD00008952FB7F89483E08093E9009091E8008F
:101AE000892F807295FF04C09091F20080E4891BD9
:101AF0002FBF089580913D0381110DC082E0809336
:101B0000390384E080933A0310923C0310923B0324
:101B100081E080933D0389E393E00895CF93DF93C1
:101B20001F92CDB7DEB76983DC01ED91FC91028095
:101B3000F381E02D41E050E0BE016F5F7F4F0995DA
:101B40000F90DF91CF91089583E08093E900809119
:101B5000F200882319F08AE38093E80008950E9438
:101B6000690D90E00895CF93DF931F92CDB7DEB754
:101B7000FC018485958597FD08C02FEF3FEF3587E1
:101B800024870F90DF91CF910895CE0101960E9496
:101B90003F0D019719F4898190E0F3CF8FEF9FEF0C
:101BA000F0CF0F931F93CF93DF931F92CDB7DEB784
:101BB0008C01FC018485958597FF0BC0CE010196B1
:101BC0000E943F0D019771F4898190E0F80195879B
:101BD0008487F801848595850F90DF91CF911F91BF
:101BE0000F9108958FEF9FEFF1CFFC0184859585CC
:101BF00097FD0BC09FB7F89482E08093E900809135
:101C0000F2009FBF90E0019608959FB7F89482E09C
:101C10008093E9008091F2009FBF90E00895409189
:101C20003303509134032091310330913203421732
:101C30005307B4F49091E8009570E1F39091E800B7
:101C400092FD19C08093F100809133039091340389
:101C500001968F739927892B19F48EEF8093E800F2
:101C600080913303909134030196909334038093D1
:101C7000330381E0089580E00895EF92FF920F937F
:101C80001F93CF93DF93F82E192FE62E042F81E0B8
:101C9000860F880F0E940F0E83E00E940F0ECF2D3B
:101CA000D12FEC0EFD2EF11CCE15DF05B9F007FF8C
:101CB00013C0FE0184910E940F0E182F80E00E9435
:101CC0000F0E812321968111EFCFDF91CF911F91CC
:101CD0000F91FF90EF9008958881EDCF81E0F5CFCF
:101CE000DF92EF92FF920F931F93CF93DF93D82E43
:101CF0008A01EB017B01E40EF51ECE15DF0559F0DC
:101D0000D7FE12C0FE0184910E940F0E2196811110
:101D1000F4CF0FEF1FEFC801DF91CF911F910F910B
:101D2000FF90EF90DF9008958881EECF0F931F937F
:101D3000CF93DF931F92CDB7DEB782E0898342E471
:101D400050E06EEA70E180E80E94700E0E947A0D09
:101D5000DC0112960D911C910115110589F0D80135
:101D6000ED91FC910280F381E02DBE016F5F7F4F0A
:101D7000C801099597FD04C0F80100851185ECCFD5
:101D800089810F90DF91CF911F910F91089561503C
:101D900030F02091F100FC0120830196F8CF2898C3
:101DA00084E6809345030895282F30E0F901E15738
:101DB000FF4E9491F901EB5AFE4E84912A5C3E4EFF
:101DC000F9012491222309F45BC09923E9F0915091
:101DD0009F30D0F4E92FF0E0E051F14F0C942C2D1E
:101DE0001B0F1F0FFF0E130F170F040F040F040F0D
:101DF000220F280F2C0F300F360F040F3A0F90913F
:101E000080009F7790938000E22FF0E0EE0FFF1F9D
:101E1000EF57FF4EA591B491EC91E82381E090E05B
:101E200089F580E00895909180009F7DEBCF90919F
:101E30008000977FE7CF94B59F7794BDE5CF94B5A9
:101E40009F7DFBCF909190009F7790939000DCCF87
:101E5000909190009F7DF9CF90919000977FF5CF62
:101E60009091C0009F779093C000CECF9091C0001A
:101E70009F7DF9CF9091C200977F9093C200C4CF0D
:101E800080E090E008953FB7F89480912D03909101
:101E90002E03A0912F03B091300326B5A89B05C057
:101EA0002F3F19F00196A11DB11D3FBFBA2FA92FD9
:101EB000982F8827BC01CD01620F711D811D911DD6
:101EC00042E0660F771F881F991F4A95D1F7089542
:101ED0008F929F92AF92BF92CF92DF92EF92FF923A
:101EE0006B017C010E94430F4B015C01C114D104C2
:101EF000E104F104B9F00E94430F681979098A09D5
:101F00009B09683E73408105910580F321E0C21A68
:101F1000D108E108F10888EE880E83E0981EA11C24
:101F2000B11CE4CFFF90EF90DF90CF90BF90AF90C7
:101F30009F908F9008958F929F92AF92BF92CF9271
:101F4000DF92EF92FF920F931F93CF93DF936C0179
:101F50007B018A0180910F01882309F45CC0809184
:101F60004603882309F457C08091380380FF05C0D9
:101F70008091E00082608093E000E801B12C8AEF5C
:101F8000A82E93E0892E2AE3922E209711F4BB20ED
:101F9000D9F10E94690D81110AC0AA94AA20D9F131
:101FA00061E070E080E090E00E94680FEECF8C1757
:101FB0001D0611F00CF08C2F9FB7F8948092E90069
:101FC0002091E80025FD02C09FBFDFCF282F30E021
:101FD000C21BD30BF701815020F041914093F100D7
:101FE000FACFE20EF31EBB2021F09092E800B12C54
:101FF000EBCF8091E80085FDE7CF9092E800BB240D
:10200000B394209709F3F3CF5D9884E68093370368
:10201000101611063CF081E090E0F6019383828374
:1020200010E000E0C801DF91CF911F910F91FF9068
:10203000EF90DF90CF90BF90AF909F908F900895DA
:102040002FB7F8946091290370912A0380912B0394
:1020500090912C032FBF0895AF92BF92CF92DF9241
:10206000EF92FF920F931F93CF93DF936C017B014D
:102070008B01040F151FEB015E01AE18BF08C017DE
:10208000D10759F06991D601ED91FC910190F08151
:10209000E02DC6010995892B79F7C501DF91CF9114
:1020A0001F910F91FF90EF90DF90CF90BF90AF9076
:1020B00008952D9A0895BC0190E080E00C94680F7B
:1020C0008FB18095807F669B88601C9B846008959B
:1020D00081EC80937C0085B1806F85B984B1877E67
:1020E00084B984B1876E84B95E9A5F988AB1806D35
:1020F0008AB9769A6E9881B3806F81BB899880B3D4
:102100008D7080BB80E58CBD81E08DBD85E090E069
:102110000E945B105F9A85E090E00E945B105E98E1
:102120005C98E0ECF7E084918EBD00000DB407FEF2
:10213000FDCF319687E0ED3CF807A9F75C9A81E87E
:1021400080936400809165008160809365000895AC
:1021500020E191E061FD94E060FD990F62FD9295B0
:10216000687F269FD0011124A80FA852BC4F8C91E4
:1021700040FF03C0892B8C93089590958923FBCF52
:10218000EF92FF920F931F93CF93DF93EC017C01AB
:10219000E60EF11CCE15DF0574F40AE310E041E011
:1021A000B801CE010E94A8100F5F1F4F0034110527
:1021B000B1F72196EFCFDF91CF911F910F91FF9053
:1021C000EF9008958F929F92AF92BF92CF92DF923D
:1021D000EF92FF920F931F93CF93DF936D3089F0AF
:1021E000C090D403D090D5036A30D1F41092D703B5
:1021F0001092D60388E0C80ED11CD092D503C092AD
:10220000D40381E090E0DF91CF911F910F91FF9077
:10221000EF90DF90CF90BF90AF909F908F900895F8
:102220000091D6031091D703E5E06E9FE0011124E1
:10223000C054DD4F5801F12CF5E0E12CFF1629F0D8
:10224000CE010196FE01E490EC01912C812CF0E886
:10225000AF16B10458F4B601680D791D60347105EC
:1022600028F44E2D4170C5010E94A810E6948FEF0E
:10227000881A980AE8E08E16910449F7F394FFEF64
:10228000AF1ABF0A86E0F812D7CF0A5F1F4F10932C
:10229000D7030093D603B5CF80E00C94BE0C3F92D9
:1022A0004F925F926F927F928F929F92AF92BF9266
:1022B000CF92DF92EF92FF920F931F93CF93DF9312
:1022C00030E0F901E80FF91F1E161F060CF0C1C01F
:1022D000803891050CF0BDC0FB01E00FF11D1E160A
:1022E0001F060CF0B6C0603471050CF0B2C0DB0103
:1022F00077FF04C0AA27BB27A61BB70BA770BB2775
:10230000FB0177FD3796C3E0F595E795CA95E1F7B0
:1023100077FF07C0319768E070E0EB01CA1BDB0B69
:10232000DE01402E469446944694512C077019F0D5
:10233000DFEF4D1A5D0ABF01EF01D695DC2FCC27E8
:10234000D795C795C80FD91FC852DC4F8A01460ED2
:10235000571E48E050E04A018A1A9B0A4616570663
:1023600009F477C06830710509F473C06F3FEFEF6F
:102370007E070CF44BC06C0150E040E03E01E0E809
:102380006E0E711CD7FC35C06F3F760709F45DC037
:102390005E01A40EB51EF501F080F801E40FF51FF3
:1023A00033243394E31039C0E4910A2E01C0EE0FB8
:1023B0000A94EAF7FE2AF501F0821097D1F067300F
:1023C0007105B9F05301A40EB51EF501F080F801B6
:1023D000E40FF51F33243394E3102BC0E491F0E0B5
:1023E000082C02C0F595E7950A94E2F7FE2AF5015C
:1023F000F0824F5F5F4FFFEFCF1ADF0A421753079C
:102400002CF4F0E8CF16D10409F0BCCF6F5F7F4FFA
:10241000C058DF4F020F131FA1CFE491F0E00A2E46
:1024200002C0EE0FFF1F0A94E2F7E095F095FE223E
:10243000C2CFE491F0E0082C02C0F595E7950A942C
:10244000E2F7E095F095FE22D2CF109709F0BACFCF
:10245000D0CFDF91CF911F910F91FF90EF90DF9040
:10246000CF90BF90AF909F908F907F906F905F9034
:102470004F903F900895EF920F93EE24E39400E184
:1024800028E540E152E0BC0184E190E00E944F1158
:102490000F91EF90089582E390E00E945B100E94FC
:1024A00060108111F8CF08958AE00E94D40E21E0D7
:1024B000892B09F020E0822F0895E62FEE0FEE70B1
:1024C00083FB662760F9E62B483008F047E0429529
:1024D000407FE40FF0E0E057FE4F94918770E82FC3
:1024E000F0E0E857FE4FE491E92381E009F480E051
:1024F00008954F925F926F927F928F929F92AF92C8
:10250000BF92CF92DF92EF92FF920F931F93CF93E0
:10251000DF93CDB7DEB768970FB6F894DEBF0FBE76
:10252000CDBF7C0106E013E0D8012D913D914D9186
:102530005C91FC0160817181828193810E947A2982
:10254000698B7A8B8B8B9C8BD80114962D913D9146
:102550004D915C911797F701648175818681978110
:102560000E947A296D8B7E8B8F8B988FD801509625
:102570008D919D910D90BC91A02D89879A87AB87F5
:10258000BC87F80144845584668477848084918470
:10259000A284B38484899589A689B7898D879E870B
:1025A000AF87B88BA301920169857A858B859C855D
:1025B0000E94302C6B017C012D853E854F8558890A
:1025C000C501B4010E94302C9B01AC01C701B601CA
:1025D0000E947A299B01AC0160E070E080E89FE3F3
:1025E0000E94632A6B017C0129893A894B895C89A5
:1025F000C301B2010E94302C2B013C012D893E8980
:102600004F89588DC501B4010E94302C9B01AC014B
:10261000C301B2010E947A29A70196010E94302CC1
:10262000162FAB01BC0149835A836B837C836D8574
:102630007E858F859889905829893A894B895C894C
:102640000E94302C4B015C012D893E894F89588DA9
:1026500069857A858B859C850E94302C9B01AC0115
:10266000C501B4010E947B29A70196010E94302C6C
:10267000E62F462F572FBC014D835E836F837887EB
:10268000212F3A814B815C816E2F7E818F819885CD
:1026900068960FB6F894DEBF0FBECDBFDF91CF9125
:1026A0001F910F91FF90EF90DF90CF90BF90AF9070
:1026B0009F908F907F906F905F904F90089587FDCF
:1026C0002EC067FD2CC0E62F062E000CFF0B98E3F2
:1026D000211101C090E49E171F0609F104F1262F75
:1026E00025952595259550E8250390011124F9019C
:1026F000E80FF11D87FDFA95CF01E0912403F091D9
:102700002503E80FF91F2081677081E090E001C088
:10271000880F6A95EAF7442319F0822B8083089585
:1027200080958223FBCF1F93CF93DF93182FC0E0B8
:10273000C038C1F0D0E0112341F0173058F020E04C
:1027400040E06D2F8C2F0E945F13DF5FD03499F72C
:10275000CF5FEECF412F6D2F8C2F0E945D1288230B
:10276000A1F3EDCFDF91CF911F9108955F926F920A
:102770007F928F929F92AF92BF92CF92DF92EF9211
:10278000FF920F931F93CF93DF93862E6A01B82E8B
:10279000912C34E0A32EA20EB7FC42C0F601E90D45
:1027A000F11DE491EE2309F43BC0C0E0AC2FB0E092
:1027B000AB5CBE4F8C91E81721F0882311F0CF5FFE
:1027C000F5CF98E8E92E91E0F92EC0FF04C08CE81F
:1027D000E82E81E0F82EC695D0E0C850DF4F712C6E
:1027E000FE01649010E000E0582C570CF701E00F58
:1027F000F11FE491E62139F020E041E0652D8B2DB9
:10280000800F0E945F130F5F1F4F0430110571F797
:1028100073946896F6E07F12E3CF9394BA0CBCCF22
:10282000DF91CF911F910F91FF90EF90DF90CF90AC
:10283000BF90AF909F908F907F906F905F90089522
:102840002F923F924F925F926F927F928F929F92C0
:10285000AF92BF92CF92DF92EF92FF920F931F93AE
:10286000CF93DF93CDB7DEB761970FB6F894DEBF95
:102870000FBECDBFD82E762E5F834E833987288733
:10288000A501940160E070E080E89FE30E94632A64
:102890001B012C0120E030E040E85FE30E94592A50
:1028A0006624639487FD05C0C201B1010E94DC2A41
:1028B000662E2EE38FE190E02D1544F08D2DD7FC90
:1028C00080E0082E000C990B959587958C539D4FB1
:1028D000DC016C9170E090E080E00E940D2B1B0108
:1028E0002C0120E030E040EA51E4C501B4010E942F
:1028F000302C9B01AC01C201B1010E94592A87FD15
:10290000C0C0B7010F2C000C880B990B0E940D2B37
:10291000A50194010E94632A0E94DC2A6D8328018C
:1029200083E0559447948A95E1F7E49CC001E59CC7
:10293000900DF49C900D1124C89E1001C99E300C7E
:102940001124F72CE72D072C000CFF0BFB87EA87DF
:10295000C801110FAA0BBB0B8C879D87AE87BF8761
:10296000AD2D0D2C000CBB0BB98BA88B6F2D6719EF
:10297000BD816B1708F085C070E08A859B85860F46
:10298000971FC89708F07BC0072E000C880B990B87
:102990000E940D2BA50194010E94302C0E94DC2A7C
:1029A000649DC001659D900D1124FC01E20DF31D95
:1029B000FB83EA83CD2CC1946C857D858E859F85B4
:1029C0000E940D2BA50194010E94632A0E94DC2A1B
:1029D0006C8310E0FC811F1708F051C0612F70E07C
:1029E00088899989860F971F8038910508F044C01F
:1029F000072E000C880B990B0E940D2BA50194014A
:102A00000E94302C0E94DC2AE62FE695E695E6959A
:102A10008A819B818E0F911DE885F985E80FF91F4A
:102A20002491677070E068577E4FFB013491E32F6B
:102A3000E22311F12E813F81820F931FFC018491CB
:102A4000FB016491E62FE823F1E0F983E11101C075
:102A50001982012F0D0D802F8C0D861568F4E12C45
:102A60006E2D6F0D21E04981802F0E945F13E3944A
:102A70006E10F6CF0F5FEFCF160DC618ABCFF60C6A
:102A800075CF61960FB6F894DEBF0FBECDBFDF9154
:102A9000CF911F910F91FF90EF90DF90CF90BF905B
:102AA000AF909F908F907F906F905F904F903F90EE
:102AB0002F900895089590E080E00895FF920F937D
:102AC0001F93CF93DF9300D000D0CDB7DEB7F82EA1
:102AD000862F4AE08E010F5F1F4FB80190E00E94E1
:102AE0000D29602F8F2D0E945E150F900F900F9073
:102AF0000F90DF91CF911F910F91FF900895CF9389
:102B0000DF936FE08CE090E00E94C01065E082E30C
:102B100090E00E94C010C6E0D3E06C8D8CE00E9473
:102B20005E156D8D82E3DF91CF910C945E150E944E
:102B3000601087FF15C05C9885EA8EBD00000DB45B
:102B400007FEFDCF5C9A2E982F982D9880916400F7
:102B500080628093640081E083BF889513BEFCCFC0
:102B600008950C94422982E090E00E94B1158823D8
:102B700019F03E9A3F9A08953E983F980895CF9352
:102B8000DF9381E090E00E94B11580FF2AC08AE0C7
:102B900090E00E94B1159FEF980F9E3F10F522E341
:102BA00030E03093D7032093D60328E330E030930E
:102BB000D5032093D403CBE0D0E0682F88E298E0DF
:102BC0000E94E210CE010E94B1152196C131D105BB
:102BD000A1F70E944C1188EE93E0DF91CF910C9405
:102BE0005B10DF91CF9108951F93CF93DF9381E026
:102BF00090E00E94B11581FF0EC0182F147082FD65
:102C00002E98C1EFDFEF0E94601086FF06C02E9A5B
:102C10002F9A0E94591080E022C0112329F0C4305D
:102C2000D10511F42E9A2F9881E00E94BE0CCE019E
:102C30000E943B120E944C118FE090E00E945B10BA
:102C40002196C931D105F9F6112311F02F9A2D984B
:102C500080E991E00E945B100E94591081E0DF91B1
:102C6000CF911F9108950E94601082FF48C02D9857
:102C70000E94601084788438E1F40E94591088EC36
:102C800090E00E945B102F9882E090E00E94422921
:102C90008F3F29F06FEF82E090E00E944A2984EF95
:102CA00091E00E945B102F9A0E9460108478843813
:102CB000D9F30E94601084718431E1F40E945910AC
:102CC00088EC90E00E945B102E9882E090E00E94D9
:102CD0004229882329F060E082E090E00E944A299E
:102CE00084EF91E00E945B102E9A0E946010847124
:102CF0008431D9F388EC90E00E945B10B4CF0C943F
:102D000059108F929F92AF92BF92CF92DF92EF9223
:102D1000FF92CF93DF93EC017B01FB012081318196
:102D200042815381688179818A819B810E947A29BD
:102D30004B015C01F70124813581468157816C810B
:102D40007D818E819F810E947A296B017C01A50182
:102D50009401C501B4010E94302C4B015C01A70114
:102D60009601C701B6010E94302C9B01AC01C50140
:102D7000B4010E947B290E94AB2C20E030E040EAA5
:102D800051E40E94302C0E94DC2A862FDF91CF91E3
:102D9000FF90EF90DF90CF90BF90AF909F908F907B
:102DA00008952F923F924F925F926F927F928F92EF
:102DB0009F92AF92BF92CF92DF92EF92FF920F93CA
:102DC0001F93CF93DF93CDB7DEB72C970FB6F89450
:102DD000DEBF0FBECDBF1C014A015B0128013901D6
:102DE0001E2DFC012081318142815381CB01B40130
:102DF0000E947B290E94D52A69877A878B879C87C6
:102E0000F985F034F0F5F10124813581468157814F
:102E1000C301B2010E947B290E94D52A6B01F8E30D
:102E2000F61778F189850E94750C8F3051F596E080
:102E3000CC0CDD1C9A95E1F709851A8511270C2920
:102E40001D2924E0000F111F2A95E1F70F60C8012A
:102E50002C960FB6F894DEBF0FBECDBFDF91CF9199
:102E60001F910F91FF90EF90DF90CF90BF90AF90A8
:102E70009F908F907F906F905F904F903F902F909A
:102E8000089511114EC0D12C8EE0C82E8091D3032D
:102E9000D81608F046C02D2D30E0DC9CC00111246E
:102EA000875B9C4F28163906D1F1C29EC001C39E94
:102EB000900D11249C01295B3C4F7901F90100819F
:102EC0001181802F8F70823051F58285855082303C
:102ED00030F1A501940162817381848195810E9402
:102EE0007A2969837A838B839C83A3019201F701FA
:102EF00066817781808591850E947A296D837E83A2
:102F00008F839887BE016F5F7F4FC1010E9481163A
:102F1000843028F4F7019485891708F498CFD39466
:102F2000B5CF10E000E093CF4F925F926F927F9207
:102F30008F929F92AF92BF92CF92DF92EF92FF92C9
:102F40000F931F93CF93DF93EC012A013B014801BC
:102F5000590100E010E098010E94D1166C01950122
:102F6000840140E050E0BA01CE010E94D1168C01EC
:102F7000CD2809F5A3019201688179818A819B811D
:102F80000E947B29688379838A839B83012B11F1BB
:102F900081E090E0DF91CF911F910F91FF90EF9032
:102FA000DF90CF90BF90AF909F908F907F906F9069
:102FB0005F904F900895892B59F7A50194016C817A
:102FC0007D818E819F810E947B296C837D838E838E
:102FD0009F83DECFA50194016C817D818E819F81CD
:102FE0000E947B296C837D838E839F8380E0D1CF79
:102FF0001F920F920FB60F9211248F939F9380917F
:10300000E1009091E100937F9093E10083FF0FC076
:103010001092E90091E09093EB001092EC0092E3A3
:103020009093ED001092460398E09093F00082FF99
:1030300022C093E09093E9009091F200992319F057
:103040009AE39093E80090913703992341F090918F
:103050003703915090933703911101C05D9A90917D
:103060004503992341F09091450391509093450376
:10307000911101C0289A84FF18C08091E2008E7ED1
:1030800081608093E2008091E1008F7E8093E10077
:10309000809138038E7E8061809338039F918F9159
:1030A0000F900FBE0F901F90189580FFF7CF809163
:1030B000E2008E7E80618093E2008091E1008E7E4E
:1030C0008093E100809138038E7E8160E5CF1F926E
:1030D0000F920FB60F921124CF92DF92EF92FF92D0
:1030E0000F931F932F933F934F935F936F937F9310
:1030F0008F939F93AF93BF93EF93FF93CF93DF9300
:10310000CDB7DEB76C97DEBFCDBF1092E9008091DE
:10311000E80083FF25C068E0CE0145960E94C70EF7
:1031200082EF8093E8008D8987FF39C09091E80095
:1031300090FFFCCF982F907609F034C19E894F897B
:10314000588D2F89F88C911131C0803861F58091AC
:1031500036038093F1001092F1008EEF8093E80027
:103160006C960FB6F894DEBF0FBECDBFDF91CF9146
:10317000FF91EF91BF91AF919F918F917F916F914F
:103180005F914F913F912F911F910F91FF90EF9081
:10319000DF90CF900F900FBE0F901F9018959EEF6D
:1031A0009093E800C7CF1092F100D5CF913059F439
:1031B0008111D3CF4130510581F6809136038D7F47
:1031C00080933603CACF933049F48111C6CF413082
:1031D000510519F6809136038260F2CF953041F4A3
:1031E0008091E80080FFFCCF20682093E300B5CFFA
:1031F000963009F0A9C00B8D1C8D22E01092E900D9
:103200001092340310923303F2122EC01092320344
:10321000109231030E94960E1F8299E09983FA82E0
:1032200091E09E8390EA98879AEF998720913303E3
:1032300030913403275F3F4F3C832B838D83109263
:10324000E900109234031092330310933203009379
:10325000310349E050E0BE016F5F7F4F80E00E9484
:10326000700E0E94960E79CF1093320300933103B3
:103270000E947A0DDC0112960D911C910115110529
:1032800009F451C1D801ED91FC910480F581E02D44
:10329000BE016B5E7F4FC8010995009709F03EC1E2
:1032A000F80100851185EACFF3E0FF120EC08F8987
:1032B000882309F440C0823061F440E867E082E18D
:1032C00091E10E943D0E811148CF81E28093EB0095
:1032D00047CF813029F440E86BE086E091E1F1CFFF
:1032E000833099F70E947A0DDC011296ED90FC90E4
:1032F0008E010F5F1F4F6801E114F10479F0D701CF
:10330000ED91FC910680F781E02DB801C701099588
:10331000080F111DF701E084F184EECFD8011C9253
:10332000F60101900020E9F73197BF016C197D0982
:1033300040E0C601C6CF60EF70E1FB01449150E070
:1033400080E80E94700E09CF973009F4BECF983004
:1033500021F481E08093F10000CF993009F0FDCE97
:10336000837009F0B2CFE1E1F1E081E031E096E372
:103370002191222371F08093E9003093EB00DF016B
:1033800011972C912093EC009093ED008F5F873084
:1033900079F78EE78093EA001092EA008F89809394
:1033A0004603DBCE8B8D9C8D1092E9001092340386
:1033B000109233039093320380933103898D8111EE
:1033C00092C08E899D89913A49F4813209F07DCF6E
:1033D00047E050E068E071E080E0B3CF913209F05F
:1033E00074CF833269F48F89988DB0E0A0E0809328
:1033F000040190930501A0930601B0930701ADCE9F
:10340000803269F48091E80082FFFCCF67E088E0B9
:1034100091E00E94C70E8BEF8093E8009ECE82322F
:1034200009F09BCE8F8980930F01EEEFFFE7859126
:1034300094918B3F9C4D51F1E0E0F8E080910801C0
:1034400090910901A0910A01B0910B01803B944039
:10345000A105B105F1F480910F0180FD1AC0EE3F86
:103460008AE0F80789F587E797E791838083809161
:1034700060008093350388E19BE00FB6F894A8952F
:10348000809360000FBE9093600067CEEEEFFAE08D
:10349000D5CF808191818737974709F05ECEA89577
:1034A00080916000886180936000809135038093F3
:1034B0006000EE3F2AE0F20789F08091FE0A9091C9
:1034C000FF0A9183808349CE808191818737980755
:1034D00051F29093FF0A8093FE0AC5CF1092FF0A23
:1034E0001092FE0A3ACE0E947A0DDC0112960D91DE
:1034F0001C910115110509F4E8CED801ED91FC915C
:103500000190F081E02DBE016B5E7F4FC8010995EF
:10351000811123CEF80100851185EBCF181619060D
:103520000CF41BCED2CEF1E0FF12BECE64EF70E100
:1035300004CF1F920F920FB60F9211242F933F9337
:103540008F939F93AF93BF938091290390912A0308
:10355000A0912B03B0912C033091280323E0230F7B
:103560002D3758F50196A11DB11D20932803809396
:10357000290390932A03A0932B03B0932C038091EB
:103580002D0390912E03A0912F03B091300301964B
:10359000A11DB11D80932D0390932E03A0932F03A3
:1035A000B0933003BF91AF919F918F913F912F9135
:1035B0000F900FBE0F901F90189526E8230F0296CC
:1035C000A11DB11DD2CF1F920F920FB60F921124E1
:1035D0002F933F938F939F93EF93FF938091B90025
:1035E000883259F060F4803121F0883131F0883030
:1035F00059F41092BF021092BE0284E92FC08034A9
:1036000031F130F48833C9F18091B90084E026C0EB
:10361000803561F08835C1F78091BB00E091BE0232
:10362000F091BF02EA59FE4F8083E7CF8091BE023E
:103630009091BF029C012F5F3F4F3093BF022093B8
:10364000BE022091BB008A599E4FFC0120838091CD
:10365000BE029091BF02019671F085EC8093BC0090
:10366000FF91EF919F918F913F912F910F900FBEFE
:103670000F901F90189585E8F1CF85EAEFCFE8ED20
:10368000F7E01382128288EE93E0A0E0B0E084833A
:103690009583A683B7838BE191E0918380838FEF3D
:1036A0009FEF95878487E8E2F8E0138212828DE22B
:1036B00091E0918380830895CF93DF93CDB7DEB7F8
:1036C000C154D1090FB6F894DEBF0FBECDBF7894B8
:1036D00084B5826084BD84B5816084BD85B5826017
:1036E00085BD85B5816085BD80916E0081608093C8
:1036F0006E00109281008091810082608093810031
:103700008091810081608093810080918000816040
:1037100080938000809191008260809391008091DD
:1037200091008160809391008091900081608093EE
:1037300090008091C10084608093C1008091C1009D
:1037400082608093C1008091C10081608093C1003C
:103750008091C30081608093C3008091C00082602B
:103760008093C0008091C20081608093C2008091EC
:103770007A00846080937A0080917A0082608093DE
:103780007A0080917A00816080937A0080917A003B
:10379000806880937A00109246031092360310924C
:1037A00038038091D70081608093D70080EA8093AE
:1037B000D80089B5806189BD89B5826089BD09B4A9
:1037C00000FEFDCF61E070E080E090E00E94680FB5
:1037D0008091D8008F7C80618093D8008091E00038
:1037E000807F8093E0008091E1008E7E8093E100F5
:1037F0008DE08093E200559A209A0E9468100E9402
:103800004C110E9497150E9433160E94B3150E9416
:10381000F41581110E94BF150E944B120E9468107E
:103820000E944C110E9497150E9433160E94B315F6
:103830000E94F41581110E94BF150E944B1288ED61
:1038400093E0909325038093240340E450E06FEFCE
:1038500070E084EC92E00E94462D86E00E94960C77
:1038600087E00E94960C88E00E94960C83E00E94FC
:10387000960C8AE00E94960C809127038823E1F041
:1038800008E3813009F445C010E0812F0E949313B2
:103890000E944C1168E270E080E090E00E94680FA6
:1038A0001F5F183091F71092260380E090E0892B7B
:1038B00019F30E940000E0CFEE24E3940FE228E425
:1038C00048ED57E065E070E08CE190E00E944F1118
:1038D00068EE73E080E090E00E94680F21E04DEC1C
:1038E00057E063E387E20E94B6130E944C1111E097
:1038F000809126038111C8CF0E9454128823C1F3FE
:103900001093270310932603F3CF1F5F103411F495
:10391000015010E00933C8F7602F812F0E94750C09
:10392000813099F7EEE1F3E086E0DF011D928A95A0
:10393000E9F7612F70E090E080E00E940B2B20E01F
:1039400030E040E05FE30E947B29609306037093C0
:1039500007038093080390930903602F70E090E0C1
:1039600080E00E940B2B20E030E040E05FE30E940B
:103970007B2960930A0370930B0380930C0390934D
:103980000D0380E090E0A0E8BFE380930E039093E6
:103990000F03A0931003B09311031092120310921F
:1039A0001303109214031092150310921603109231
:1039B0001703109218031092190383EC95EFA8E2F5
:1039C000BFEB80931A0390931B03A0931C03B09347
:1039D0001D0384E680932203B7E0BAAB1DA21DAAA3
:1039E0000E942010C090C002D090C102E090C2029C
:1039F000F090C3026C197D098E099F090E940B2B60
:103A000025E535E545E852E40E94592A87FDE8CFCF
:103A10000E9420106C197D098E099F090E940B2BB2
:103A200025E535E545E852E40E94632A60930001EC
:103A30007093010180930201909303010E94201072
:103A40006093C0027093C1028093C2029093C3023C
:103A5000E0912403F0912503DF0120E833E01D927B
:103A600021503040E1F780912203882309F419C3E3
:103A700088E00E94D40E892B09F067C1C0901E0314
:103A8000D0901F03E0902003F0902103A70196013E
:103A90006DEC7CEC8CE49EE30E947A292DEC3CECEE
:103AA0004CEC5EE30E94302CA70196010E947B291A
:103AB0006B017C01C0921E03D0921F03E092200391
:103AC000F092210320E030E0A9010E94232C181677
:103AD0000CF05EC120E030E040EA50E4C701B601DE
:103AE0000E94302C6AA77BA78CA79DA787E00E9425
:103AF000D40E892B09F054C12FE832EC45EF5DE379
:103B00006091000170910101809102019091030187
:103B10000E94302C6B017C0180900E0390900F036B
:103B2000A0901003B09011030E945E2A2B013C016B
:103B30008091120390911303A0911403B091150387
:103B40008D8F9E8FAF8FB8A3C701B6010E949D2CA9
:103B500069A37AA38BA39CA3A3019201C501B4011D
:103B60000E94302C6EA37FA388A799A729A13AA110
:103B70004BA15CA16D8D7E8D8F8D98A10E94302C04
:103B80009B01AC016EA17FA188A599A50E947B290C
:103B900060930E0370930F038093100390931103AF
:103BA000C701B60190580E949D2C6EA37FA388A7E1
:103BB00099A79B01AC01C501B4010E94302C6B0197
:103BC0007C012D8D3E8D4F8D58A1C301B2010E9405
:103BD000302C9B01AC01C701B6010E947B29609388
:103BE0001203709313038093140390931503809032
:103BF000160390901703A0901803B0901903C0907B
:103C00001A03D0901B03E0901C03F0901D03A50144
:103C10009401C301B2010E94302C6D8F7E8F8F8F73
:103C200098A3A701960169A17AA18BA19CA10E94EA
:103C3000302C9B01AC016D8D7E8D8F8D98A10E94E3
:103C40007B29609316037093170380931803909356
:103C50001903A50194016EA17FA188A599A50E94D1
:103C6000302C4B015C01A7019601C301B2010E94F7
:103C7000302C9B01AC01C501B4010E947B296093EB
:103C80001A0370931B0380931C0390931D030E94DF
:103C900020100E940B2B2AE037ED43EA5BE30E94E1
:103CA000302C0E949D2C20E030E0A9010E94232CA2
:103CB00018160CF02AC10E9420100E940B2B2AE03B
:103CC00037ED43EA5BE30E94302C0E949D2C20E0FC
:103CD00030E040EC50E40E94302C9B01AC016AA51E
:103CE0007BA58CA59DA50E94302C6EA77FA788ABD5
:103CF00099AB9DA1933108F416C191509DA3C0903A
:103D00001E03D0901F03E0902003F090210320E0D9
:103D100030E0A901C701B6010E94232C18160CF04F
:103D2000EEC126EA3BE944E45BE3C701B6010E9429
:103D3000232C18160CF4EDC110921E0310921F03D1
:103D4000109220031092210317C283E00E94D40E28
:103D5000892B79F4C0901E03D0901F03E0902003BC
:103D6000F0902103A70196016DEC7CEC8CE49EEBB6
:103D700093CE20E030E040E05FE360911E0370915D
:103D80001F0380912003909121030E94302C90CE3C
:103D9000C701B601905820E030E040EA50E4A0CEE0
:103DA00086E00E94D40E892B09F071CF2FE832EC07
:103DB00045EF5DE360910001709101018091020186
:103DC000909103010E94302C4B015C01C0900E03C6
:103DD000D0900F03E0901003F09011030E945E2A30
:103DE0006D8F7E8F8F8F98A3409012035090130396
:103DF0006090140370901503C501B4010E949D2CBE
:103E000069A37AA38BA39CA32D8D3E8D4F8D58A1C2
:103E1000C701B6010E94302C4B015C0129A13AA1D7
:103E20004BA15CA1C301B2010E94302C9B01AC01EB
:103E3000C501B4010E947A2960930E0370930F03A9
:103E4000809310039093110329A13AA14BA15CA187
:103E5000C701B6010E94302C6B017C01A3019201C5
:103E60006D8D7E8D8F8D98A10E94302C9B01AC01B1
:103E7000C701B6010E947B2960931203709313035C
:103E8000809314039093150380901603909017036A
:103E9000A0901803B0901903C0901A03D0901B0390
:103EA000E0901C03F0901D03A50194016D8D7E8DA3
:103EB0008F8D98A10E94302C2B013C01A701960107
:103EC00069A17AA18BA19CA10E94302C9B01AC011D
:103ED000C301B2010E947A296093160370931703FD
:103EE0008093180390931903A501940169A17AA105
:103EF0008BA19CA10E94302C4B015C01A701960173
:103F00006D8D7E8D8F8D98A1B2CE0E9420100E9463
:103F10000B2B2AE037ED43EA5BE30E94302C0E9432
:103F20009D2C9058D4CEADA1A23119F0AE5FADA3B7
:103F3000E6CEBDA9B1110C941B280E9454128DAB82
:103F4000882309F4DCCEA12C5EE0B52E64E0962E29
:103F50008091D303A81608F0CFC00A2D10E0B09EC0
:103F6000F001B19EF00D1124E95BFC4F80818F7050
:103F7000823051F582858550823030F1AB9CC00192
:103F80001124875B9C4F0E94791229833A834B83CB
:103F90005C836D837E838F839887C980DA80EB8012
:103FA000FC8020E030E0A901C701B6010E94232C6B
:103FB000181664F020E030E040EA51ECC701B60189
:103FC0000E94232C181664F0A394C2CF20E030E0A6
:103FD00040EA51E4C701B6010E94592A87FFF4CF95
:103FE00020E030E0A9016D817E818F8198850E945B
:103FF000232C18164CF720E030E0A901C701B601C8
:104000000E94232C181624F0F7FAF094F7F8F09495
:10401000B09EF001B19EF00D1124E95BFC4F648568
:1040200070E090E080E00E940D2BA70196010E94B5
:10403000302C9B01AC0160E070E080E791E40E94CD
:10404000632A20E030E040EA50E40E94632A6B01DA
:104050007C0120E030E040E751E40E94232C181658
:10406000F4F0C701B6010E94DC2A662309F4ACCF44
:10407000B09EF001B19EF00D1124E95BFC4F8385E9
:10408000861B990B97FD80E08387B09EF001B19E5F
:10409000F00D1124E95BFC4F9286958695CF6FE079
:1040A000E7CF20E030E040E251EC6EA57FA588A983
:1040B00099A90E94232C1816ACF420E030E040E8C7
:1040C0005FE36EA57FA588A999A90E947A296EA7AA
:1040D0007FA788AB99ABEDA1E23008F410CEE25097
:1040E000EDA30DCE0E9454128823A9F3109227034A
:1040F00081E080932603EFCFF6E1FDA300CE26EA10
:104100003BE944E45BEBC701B6010E94592A87FFF3
:1041100013CE8090000190900101A0900201B09018
:104120000301209112033091130340911403509125
:104130001503C701B6010E94302CA50194010E940D
:10414000302C2B013C0120910E0330910F03409144
:10415000100350911103C701B6010E94302CA50134
:1041600094010E94302CAB01BC01E12C930182012F
:1041700086E093E00E949417212C4EE0342E0091AB
:10418000D303201608F0B8C1622C712C239C700157
:1041900011249701275B3C4F3E8F2D8FB90186E09C
:1041A00093E00E948116F701E95BFC4F84879585B7
:1041B000992311F091509587893C60F0369CF0016D
:1041C000379CF00D1124E95BFC4F808191810E94A6
:1041D0000A0DD5CF369C9001379C300D1124A901D2
:1041E000495B5C4F6A01DA011A962C911A972630C6
:1041F00011F42394C4CFFA0190819F70983009F490
:104200005BC188F49230A9F71B969C911B97911182
:1042100020C0253071F385E01A968C931A97E6E05A
:104220001D96EC93E6CF993009F45AC19A3009F7FC
:10423000823008F001C180912203843108F484E1C6
:1042400084518093220341E0409305030E947F152F
:10425000B5CF243071F4D6011D968C911D97811134
:10426000C8CFE1E01A96EC931A9788E21D968C93DA
:10427000C0CF223081F399EF980F369CF001379C24
:10428000F00D1124E95BFC4F993408F0B1C02130E6
:1042900029F021E0228734E13587ABCF1585111154
:1042A00031C086809780A084B184C280D380E480AE
:1042B000F5800A3008F016C7C501B4010E94DC2A57
:1042C000562EC701B6010E94DC2A462E40E4549EB9
:1042D000C0011124842934E0880F991F3A95E1F731
:1042E0008A6027E433E0011709F4AAC6225F3F4F32
:1042F000F9013E97408151814817590709F4F2C6E8
:104300001F5FF1CFC0900A03D0900B03E0900C0325
:10431000F0900D0386809780A084B184A50194015C
:10432000C701B6010E94232C2AE037ED43EA5CE383
:1043300018167CF0A5019401C701B6010E94592A04
:104340002AE037ED43EA5CEB87FD03C020E030E074
:10435000A901C0900001D0900101E0900201F0900D
:104360000301C701B6010E94302C69A37AA38BA375
:104370009CA38090060390900703A0900803B09040
:104380000903369CF001379CF00D1124E95BFC4FCA
:104390004280538064807580A3019201C501B401FD
:1043A0000E94232C2AE037ED43EA5CE318167CF0E8
:1043B000A3019201C501B4010E94592A2AE037EDF8
:1043C00043EA5CEB87FD03C020E030E0A901C701B0
:1043D000B6010E94302CAB01BC01EE24E39409A18C
:1043E0001AA12BA13CA18D8D9E8D0E94941701CF07
:1043F000873000F5233029F0B3E0B2872AE0258723
:10440000F8CE85858111F5CE80912203883008F49D
:1044100088E0885080932203369CF001379CF00D91
:104420001124E95BFC4F358631E0309305030E948F
:104430007F15DFCE1286DDCE1B966C9170E090E08A
:1044400080E00E940B2B20E030E044E352E40E9425
:10445000632A2BED3FE049E450E40E94302C2B010D
:104460003C010E949D2C4B015C01C301B2010E94E2
:104470005E2A2B013C012DEC3CEC4CE45EE3C501D3
:10448000B4010E94302C4B015C012DEC3CEC4CE45F
:104490005EE3C301B2010E94302CAB01BC01EE24EB
:1044A000E394950184018D8D9E8D0E949417892B34
:1044B00009F49FCEF60189CE863008F09ACEE6E068
:1044C0001A96EC9380912203833308F082E38E5C8A
:1044D000809322030E947F15F1E0F093050389CEBB
:1044E000863008F086CEE6E01A96EC93809123039E
:1044F0008F5F80932303EECF1D8E2D8D622F70E092
:1045000090E080E00E940B2B9B01AC010E947B2974
:1045100020E030E040E05CE30E94302C20E030E01E
:1045200040E85FE30E947A296B017C012091160329
:104530003091170340911803509119030E94302CB9
:1045400020910E0330910F034091100350911103FD
:104550000E947B296EAB7FAB88AF99AF20911A0385
:1045600030911B0340911C0350911D03C701B601FC
:104570000E94302C209112033091130340911403B8
:10458000509115030E947B296AAF7BAF8CAF9DAF22
:10459000C0900603D0900703E0900803F090090351
:1045A000C701B6010E94DC2A262E80900A03909053
:1045B0000B03A0900C03B0900D03C501B4010E9441
:1045C000DC2A362EC982DA82EB82FC828D829E82C0
:1045D000AF82B8862EA93FA948AD59AD60E070E022
:1045E00080E89FE30E94632A69A37AA38BA39CA31C
:1045F00020E030E0A9010E94232C18164CF089A17C
:104600009AA1ABA1BCA1B05889A39AA3ABA3BCA3A8
:104610002AAD3BAD4CAD5DAD60E070E080E89FE35E
:104620000E94632A6EA37FA388A799A720E030E0A9
:10463000A9010E94232C18164CF02EA13FA148A5D9
:1046400059A550582EA33FA348A759A7622D70E043
:1046500090E080E00E940D2B2B013C0120E030E037
:10466000A9016EA97FA988AD99AD0E94592A87FF3B
:1046700053C1A3019201C701B6010E947A2929A161
:104680003AA14BA15CA10E94302C6B017C013FEF51
:104690003EAF632D70E090E080E00E940D2B2B0177
:1046A0003C0120E030E0A9016AAD7BAD8CAD9DAD51
:1046B0000E94592A87FF47C1A3019201C501B40195
:1046C0000E947A292EA13FA148A559A50E94302C0D
:1046D0002B013C015FEF5FAF9CE022969FAF2297DA
:1046E000A7019601C301B2010E94232C18160CF0F9
:1046F00041C129A13AA14BA15CA1C701B6010E9409
:104700007B296B017C01BEAD2B0E10E0FFE3F2159F
:1047100008F471C128E3231508F46DC1632D822DBF
:104720000E94750C082F8F3009F032C111117FC122
:10473000622D70E090E080E00E940D2B2091060336
:104740003091070340910803509109030E947A2990
:104750006B017C0161E070E03EAD631B710937FDC8
:10476000739575956795072E000C880B990B0E9421
:104770000D2B9B01AC01C701B6010E947B292EA91C
:104780003FA948AD59AD0E94632A6B017C0120E02E
:1047900030E040E85FE30E94592A87FF06C0C12C41
:1047A000D12C00E8E02E0FE3F02E20E030E040EACC
:1047B00051E4C701B6010E94302C4B015C0120E09E
:1047C00030E04FE753E40E94592A6FEF87FF04C09F
:1047D000C501B4010E94DC2AED8DE695F0E0EC53B2
:1047E000FD4F6083110F08E0011B20E030E040E442
:1047F00051E4C701B6010E94632A20E030E040E0A6
:1048000051E40E94302C0E94D52A061BA701960174
:104810006EA57FA588A999A90E94632A4B015C0116
:10482000A701960160E070E080E692E40E94632AAE
:104830000E94DC2A669570E090E080E00E940D2BDB
:104840006B017C01AC019B01C501B4010E947B2975
:1048500020E030E040EE51E40E947B290E94D52AFE
:10486000162FA7019601C501B4010E947A2920E004
:1048700030E040EE51E40E947B290E94D52AA12E0F
:1048800061170CF4A62EA7FCA12CF12E16170CF420
:10489000F62E57E35F1514F417E3F12E9D8C9394D5
:1048A0009394ED8C1A2DB12CCE2CD12CF1160CF446
:1048B000EAC0812F877021968FAF219780E0002377
:1048C00041F081E0073028F4402F612F8E2D0E94A7
:1048D0005D1290E021960FAC219702C0880F991FBE
:1048E0000A94E2F7B82A21969FAD2197973091F468
:1048F000E12FE695E695E695A0E8EA9FC001112430
:10490000E0912403F0912503E80FF91FEC0DFD1D44
:10491000B082B12C1F5FCACF20E030E040E85FE3F7
:10492000C301B2010E947B29A70196010E947A2946
:1049300029A13AA14BA15CA10E94302C6B017C0102
:1049400041E04EAFA6CE20E030E040E85FE3C30197
:10495000B2010E947B29A50194010E947A292EA10F
:104960003FA148A559A50E94302C2B013C0181E0B4
:104970008FAFB2CE2EA13FA148A559A5C301B20168
:104980000E947B292B013C01EFAD3E0E11E0BECE13
:10499000823011F003FFD9C3BE016F5F7F4F86E005
:1049A00093E00E948116883C08F0CFC330E4339E28
:1049B00040011124822824E0880C991C2A95E1F7F3
:1049C000802A4BA95CA94815590509F4BEC310916A
:1049D000D30327E433E080E0181709F48FC3225F84
:1049E0003F4FF9013E97408151818416950609F4A5
:1049F000ACC38F5FF1CF00E0CDCFBEE0B19FC0016F
:104A00001124FC01E95BFC4F5F0100E0232D422DE6
:104A100069E08AC3FEE0F19FC00111249C01295B7B
:104A20003C4F590100E0232D422D68E07DC3632DEA
:104A300070E090E080E00E940D2B20910A033091FD
:104A40000B0340910C0350910D030E947A296B01D6
:104A50007C0161E070E04FAD641B710947FD739507
:104A600075956795072E000C880B990B0E940D2BEE
:104A70009B01AC01C701B6010E947B292AAD3BAD69
:104A80004CAD5DAD80CE2196BFAD2197B73089F09A
:104A90001150169516951695E0E81E9FC001112439
:104AA000E0912403F0912503E80FF91FEE0DF11DAD
:104AB000B082E3949E1409F451C3F4CE8BE072C328
:104AC00081E070C3312C4EE0242E8091D303381640
:104AD00008F090C1C32CD12C2C9CC0012D9C900DB2
:104AE0001124FC01E95BFC4F7F011285163009F4AB
:104AF0005CC0875B9C4F0E94791229833A834B8369
:104B00005C836D837E838F8398878D809E80AF804A
:104B1000B8842DEC3CEC4CEC5DE3C501B4010E9483
:104B2000592A18160CF041C020E030E040E051E472
:104B3000C501B4010E94232C1816BCF1A5019401F3
:104B400069817A818B819C810E94632A20E030E018
:104B500040E85FE30E947B2920E030E040E852E437
:104B60000E94302C0E94D52A2B01CB01805C9F4FE4
:104B700081309140D0F4A50194016EA57FA588A94C
:104B800099A90E94632A20E030E040EE51E40E949F
:104B90007B290E94D52A062FD7018C918F708830EF
:104BA00009F4B4C020F48230D1F133948ECF89302F
:104BB00009F4EAC08A30C9F7A501940160E070E009
:104BC00080E091E40E94632A6B017C01602F000F5A
:104BD000770B880B990B0E940D2BA70196010E9461
:104BE0007A290E94D52A6D8FB201550C880B990B3A
:104BF0000E940D2BA70196010E947A290E94D52AB6
:104C0000862FC12C20E1E22EF12C00E110E02FEFE5
:104C100039E04FE15AE06D8D0E942014C6CF11306B
:104C200009F04DC00E94201024EF31E040E050E038
:104C30000E945829C90162E070E00E94182D182FC7
:104C4000602F000F770B880B990B0E940D2B6B01C7
:104C50007C01A501940160E070E080E091E40E9495
:104C6000632A9B01AC01C701B6010E947A290E9408
:104C7000D52AD62EB201550C880B990B0E940D2B0C
:104C80002B013C01A501940160E070E080E891E413
:104C90000E94632A9B01AC01C301B2010E947A29E0
:104CA0000E94D52A862FC12E30E2E32EF12C00E29D
:104CB00010E02FE33AE04FEB5CE06D2DADCF12300A
:104CC00009F4BECF1430F1F0133071F42C9CF001D4
:104CD0002D9CF00D1124E95BFC4F858512E08B3093
:104CE00008F0AECF11E0ACCF153071F42C9CF00180
:104CF0002D9CF00D1124E95BFC4F858514E0882381
:104D000009F49ECF13E09CCF10E09ACF602F000FE4
:104D1000770B880B990B0E940D2B6B017C01A50171
:104D2000940160E070E080EA90E40E94632A9B01B5
:104D3000AC01C701B6010E947B290E94D52AD62E5C
:104D4000B201550C880B990B0E940D2B2B013C01D5
:104D5000A501940160E070E080E091E40E94632A84
:104D60009B01AC01C301B2010E947A290E94D52A9D
:104D7000862FC12C90E1E92EF12C00E110E02FE705
:104D800039E04FEB59E099CF602F000F770B880B7C
:104D9000990B0E940D2B6B017C01A501940160E031
:104DA00070E080EA90E40E94632A9B01AC01C70195
:104DB000B6010E947B290E94D52AD62EB201550C3D
:104DC000880B990B0E940D2B2B013C01A50194012E
:104DD00060E070E080E091E40E94632A9B01AC01F6
:104DE000C301B2010E947A290E94D52A862FCC24C1
:104DF000C394C0CF0E9420100E940B2B2AE037EDF5
:104E000043EA5BE30E94302C0E949D2C20E030E0BE
:104E100040E251E40E94302C2AA53BA54CA55DA59B
:104E20000E94302C20E030E040E452E40E947B29D4
:104E30000E94D52AA62E68E370E0BDA16B1B710904
:104E4000072E000C880B990B0E940D2B6B017C0127
:104E50000E9420100E940B2B2AE037ED43EA5BE30F
:104E60000E94302C0E945E2A20E030E0A9010E94BE
:104E7000232C18160CF0A3C00E9420100E940B2BAC
:104E80002AE037ED43EA5BE30E94302C0E945E2A61
:104E900020E030E040E051E40E94302C9B01AC0166
:104EA0006AA57BA58CA59DA50E94302CA701960123
:104EB0000E947B290E94D52A162F862E660F9908FC
:104EC0000A2C000CBB08EDA1E53168F0EE24E39458
:104ED00004E128E14FE350E1B4016B507109C501D1
:104EE00006960E944F11C4018096183114F088E391
:104EF00090E06C01C818D908D7FCC12CE12C0C2D0E
:104F000020E24FEB5FE0B401C5010E944F11EE2497
:104F1000E39420E24FE35FE0B401C5010E944F112A
:104F2000FAA9FF2309F459C08F2F0E9493132AA9CD
:104F300021502AAB21110FC04EE750E16AE382E015
:104F40000E94B61320E04BE750E16AE388E20E943A
:104F5000B6130E947F159091050380910403992355
:104F600009F461C021E0822780930403915090935B
:104F7000050380910403882309F45BC087EA5C98E9
:104F80008EBD00000DB407FEFDCF5C9A0E944C114F
:104F900086E00E94D40E892B51F487E00E94D40E43
:104FA000892B29F41092270381E0809326038091B6
:104FB0002603882311F40C94F01C0C94441C0E94CA
:104FC00020100E940B2B2AE037ED43EA5BE30E949E
:104FD000302C0E945E2A90585BCF66E48AE390E012
:104FE0000E94C01025E535E545E852E460910001D6
:104FF0007091010180910201909103010E94302C77
:105000009B01AC0160E070E08AE794E40E94632AAF
:105010000E94D52A82E70E945E156091D30382E543
:105020000E945E1598CF882309F4A3CF1092040341
:10503000A0CF86EAA4CF0E9454128DAB0C947F1EA1
:105040002091060330910703409108035091090312
:10505000C701B6010E947A296B017C0120910A03E5
:1050600030910B0340910C0350910D03C501B40125
:105070000E947A29A70196010E94FA292BED3FE0B0
:1050800049E450E40E94632A20E030E044E352E423
:105090000E94302C20E030E044E352E40E947B295F
:1050A0000E94D52AAB0177FF03C0AB01465A5F4F80
:1050B000319E90011124C901895B9C4F7C01042F12
:1050C000252D442D6AE0CE010F960E94CD0CFE01E5
:1050D0003F96D701832D01900D928A95E1F71F5FCE
:1050E0001093D303369CF001379CF00D1124E95B3B
:1050F000FC4F92E09287A6E0A5877BC81A3018F58E
:10510000083009F487CC093009F477CC0230D9F49F
:105110005EE0519FC0011124DC01A95BBC4F5D0121
:1051200004E6232D422D62E0CE010F960E94CD0CA5
:10513000FE013F96D5018EE001900D928A95E1F730
:105140001F5F1093D3039CAA8BAA2296AFAD229720
:10515000A1502296AFAF2297A111C2CAFD8DFE5F6A
:10516000FD8FF03809F0C9C98091D303E0E0AAE0CF
:10517000EA2E0DE010E0C82ED12CBEE0FB2E8230CE
:1051800018F4EE2309F49ECC8E9DC0011124B801C1
:105190000E94182D862F6950623008F48FCC882326
:1051A00009F48ECC90E0E0E0B601681B7109292F6C
:1051B00030E0261737071CF7F29EA001F39E500D32
:1051C0001124495B5C4F280FF29E90011124295B4A
:1051D0003C4FDA011C96BC90D9011C96FC91BF167D
:1051E000D0F4EEE0BE2EFA01DE01119601900D9290
:1051F000BA94E1F7FEE0BF2EF901DA0101900D92B9
:10520000BA94E1F74EE0FE013196D90101900D927A
:105210004A95E1F7E1E09F5FCACFBB274A3031F4FE
:10522000992322F4BDE2909581959F4F0C94192902
:10523000BB27FB015527AA27880F991FAA1FA41770
:1052400010F0A41B83955051B9F7A05DAA3308F064
:10525000A95DA193009779F7B111B1931192CB0198
:105260000C943229DC01FC01672F71917723E1F75F
:10527000329704C07C916D9370836291AE17BF0723
:10528000C8F30895F999FECF92BD81BDF89A992788
:1052900080B50895262FF999FECF1FBA92BD81BD22
:1052A00020BD0FB6F894FA9AF99A0FBE01960895A8
:1052B000A1E21A2EAA1BBB1BFD010DC0AA1FBB1F1A
:1052C000EE1FFF1FA217B307E407F50720F0A21B8C
:1052D000B30BE40BF50B661F771F881F991F1A94F9
:1052E00069F760957095809590959B01AC01BD0123
:1052F000CF0108955058BB27AA270E9492290C94E9
:10530000D52B0E949C2B38F00E94A32B20F039F45F
:105310009F3F19F426F40C94722B0EF4E095E7FBF2
:105320000C946C2BE92F0E94FA2B58F3BA176207E2
:1053300073078407950720F079F4A6F50C941C2CCC
:105340000EF4E0950B2EBA2FA02D0B01B9019001A0
:105350000C01CA01A0011124FF27591B99F0593FE4
:1053600050F4503E68F11A16F040A22F232F342F2C
:105370004427585FF3CF469537952795A795F0407A
:105380005395C9F77EF41F16BA0B620B730B840B8F
:10539000BAF09150A1F0FF0FBB1F661F771F881F47
:1053A000C2F70EC0BA0F621F731F841F48F487959F
:1053B00077956795B795F7959E3F08F0B0CF939591
:1053C000880F08F09927EE0F9795879508950E940A
:1053D0009C2B60F080E891E009F49EEF0E94A32BE3
:1053E00028F040E851E071F45EEF0CC00C94722B91
:1053F0000C941C2CE92FE0780E94FA2B40F3092E24
:10540000052AB1F3261737074807590738F00E2E3B
:1054100007F8E02569F0E025E0640AC0EF6307F8CB
:10542000009407FADB01B9019D01DC01CA01AD015D
:10543000EF930E947A2A0E94D52B0E942A2A5F911C
:10544000552339F02BED3FE049E450FD49EC0C9435
:105450007B290895DF93DD27B92FBF7740E85FE30D
:105460001616170648075B0718F4D92F0E94282C38
:105470009F938F937F936F930E94EB2CECEAF0E065
:105480000E94752B0E94D52B2F913F914F915F91D8
:105490000E94432CDD2351F09058A2EA2AED3FE010
:1054A00049EC5FE3D0785D270E949229DF910C944C
:1054B000D52B0E94482B08F481E008950E94AC2B64
:1054C000E3950C94E62B0E94772A0C94D52B0E942E
:1054D000A32B58F00E949C2B40F029F45F3F29F049
:1054E0000C946C2B51110C941D2C0C94722B0E945B
:1054F000FA2B68F39923B1F3552391F3951B550BC0
:10550000BB27AA2762177307840738F09F5F5F4F96
:10551000220F331F441FAA1FA9F335D00E2E3AF0D5
:10552000E0E832D091505040E695001CCAF72BD0ED
:10553000FE2F29D0660F771F881FBB1F261737073E
:105540004807AB07B0E809F0BB0B802DBF01FF2770
:1055500093585F4F3AF09E3F510578F00C946C2BB6
:105560000C941D2C5F3FE4F3983ED4F38695779519
:105570006795B795F7959F5FC9F7880F911D969529
:10558000879597F90895E1E0660F771F881FBB1F85
:10559000621773078407BA0720F0621B730B840B32
:1055A000BA0BEE1F88F7E09508950E94DC2A6894F4
:1055B000B1110C941D2C08950E94022C88F09F5765
:1055C00098F0B92F9927B751B0F0E1F0660F771F27
:1055D000881F991F1AF0BA95C9F714C0B13091F01D
:1055E0000E941C2CB1E008950C941C2C672F782F7E
:1055F0008827B85F39F0B93FCCF3869577956795E2
:10560000B395D9F73EF490958095709561957F4F4D
:105610008F4F9F4F0895E89409C097FB3EF49095F3
:105620008095709561957F4F8F4F9F4F9923A9F07B
:10563000F92F96E9BB279395F6958795779567950A
:10564000B795F111F8CFFAF4BB0F11F460FF1BC04E
:105650006F5F7F4F8F4F9F4F16C0882311F096E9E1
:1056600011C0772321F09EE8872F762F05C066238F
:1056700071F096E8862F70E060E02AF09A95660F48
:10568000771F881FDAF7880F9695879597F9089501
:10569000990F0008550FAA0BE0E8FEEF1616170643
:1056A000E807F907C0F012161306E407F50798F0AB
:1056B000621B730B840B950B39F40A2661F0232BC4
:1056C000242B252B21F408950A2609F4A140A69540
:1056D0008FEF811D811D089597F99F6780E870E025
:1056E00060E008959FEF80EC0895DF93CF931F93C0
:1056F0000F93FF92EF92DF927B018C01689406C0BA
:10570000DA2EEF010E94432CFE01E894A591259129
:10571000359145915591A6F3EF010E949229FE0122
:105720009701A801DA9469F7DF90EF90FF900F914D
:105730001F91CF91DF91089500240A941616170641
:1057400018060906089500240A9412161306140672
:10575000050608950C94722B0E94022CD8F3E8944D
:10576000E0E0BB279F57F0F02AED3FE049EC06C090
:10577000EE0FBB0F661F771F881F28F0B23A620733
:105780007307840728F0B25A620B730B840BE395FE
:105790009A9572F7803830F49A95BB0F661F771F81
:1057A000881FD2F790480C94F12C092E0394000C1A
:1057B00011F4882352F0BB0F40F4BF2B11F460FFAB
:1057C00004C06F5F7F4F8F4F9F4F0895EF93E0FFAF
:1057D00007C0A2EA2AED3FE049EC5FEB0E94922964
:1057E0000E94D52B0F90039401FC9058E9EDF0E056
:1057F0000C94042D57FD9058440F551F59F05F3FEE
:1058000071F04795880F97FB991F61F09F3F79F0E2
:1058100087950895121613061406551FF2CF469564
:10582000F1DF08C0161617061806991FF1CF8695E6
:105830007105610508940895E894BB2766277727CA
:10584000CB0197F908950E94482B08F48FEF089533
:105850009B01AC0160E070E080E89FE30C94632A58
:105860000E94432C0C94D52B0E949C2B38F00E9454
:10587000A32B20F0952311F00C946C2B0C94722B1D
:1058800011240C941D2C0E94FA2B70F3959FC1F3E8
:10589000950F50E0551F629FF001729FBB27F00DDE
:1058A000B11D639FAA27F00DB11DAA1F649F662733
:1058B000B00DA11D661F829F2227B00DA11D621F82
:1058C000739FB00DA11D621F839FA00D611D221F3C
:1058D000749F3327A00D611D231F849F600D211D20
:1058E000822F762F6A2F11249F5750409AF0F1F0A3
:1058F00088234AF0EE0FFF1FBB1F661F771F881F0C
:1059000091505040A9F79E3F510580F00C946C2BAC
:105910000C941D2C5F3FE4F3983ED4F38695779565
:105920006795B795F795E7959F5FC1F7FE2B880FB1
:10593000911D9695879597F908959F930E94AC2B9A
:105940000F9007FCEE5F0C94E62B19F416F40C9400
:10595000722B0C94EF2C0E94022CB8F39923C9F3FC
:10596000B6F39F57550B87FF0E94FD2C0024A0E63D
:1059700040EA900180585695979528F4805C660F10
:10598000771F881F20F026173707480730F4621B5F
:10599000730B840B202931294A2BA6951794079461
:1059A000202531254A2758F7660F771F881F20F0DA
:1059B00026173707480730F4620B730B840B200D52
:1059C000311D411DA09581F7B901842F9158880F91
:1059D0009695879508959B01AC010C94302C9F3FC0
:1059E00031F0915020F4879577956795B795880F9A
:1059F000911D9695879597F9089591505040660F9F
:105A0000771F881FD2F708959F938F937F936F938B
:105A1000FF93EF939B01AC010E94302CEF91FF911B
:105A20000E94752B2F913F914F915F910C94302CD8
:105A300097FB072E16F4009407D077FD09D00E943B
:105A4000322D07FC05D03EF4909581959F4F089527
:105A5000709561957F4F0895EE0FFF1F0590F491AB
:105A6000E02D0994AA1BBB1B51E107C0AA1FBB1F55
:105A7000A617B70710F0A61BB70B881F991F5A95DA
:105A8000A9F780959095BC01CD010895DC0101C076
:0E5A90006D9341505040E0F70895F894FFCF19
:105A9E000000803FFFFFFFFF00E10000000000005C
:105AAE0000C18081000000000000008E0D9B0FAF32
:105ABE000DA40DF50DB30DD10D00000000E2102C5C
:105ACE00105B155A152030313233343536373839AC
